{
  "contractName": "Loan",
  "abi": [
    {
      "inputs": [],
      "payable": false,
      "stateMutability": "nonpayable",
      "type": "constructor",
      "signature": "constructor"
    },
    {
      "anonymous": false,
      "inputs": [
        {
          "indexed": true,
          "name": "_from",
          "type": "address"
        },
        {
          "indexed": true,
          "name": "_to",
          "type": "address"
        },
        {
          "indexed": false,
          "name": "_value",
          "type": "uint256"
        }
      ],
      "name": "Transfer",
      "type": "event",
      "signature": "0xddf252ad1be2c89b69c2b068fc378daa952ba7f163c4a11628f55a4df523b3ef"
    },
    {
      "constant": false,
      "inputs": [
        {
          "name": "receiver",
          "type": "address"
        },
        {
          "name": "a",
          "type": "int256"
        }
      ],
      "name": "lendMoney",
      "outputs": [
        {
          "name": "sufficient",
          "type": "bool"
        }
      ],
      "payable": true,
      "stateMutability": "payable",
      "type": "function",
      "signature": "0x0c37c34b"
    },
    {
      "constant": true,
      "inputs": [
        {
          "name": "addr",
          "type": "address"
        }
      ],
      "name": "getBalance",
      "outputs": [
        {
          "name": "",
          "type": "uint256"
        }
      ],
      "payable": false,
      "stateMutability": "view",
      "type": "function",
      "signature": "0xf8b2cb4f"
    },
    {
      "constant": false,
      "inputs": [
        {
          "name": "a",
          "type": "address"
        },
        {
          "name": "b",
          "type": "int256"
        },
        {
          "name": "s",
          "type": "string"
        }
      ],
      "name": "addLender",
      "outputs": [
        {
          "name": "status",
          "type": "bool"
        }
      ],
      "payable": false,
      "stateMutability": "nonpayable",
      "type": "function",
      "signature": "0xebfe752d"
    },
    {
      "constant": true,
      "inputs": [
        {
          "name": "a",
          "type": "address"
        }
      ],
      "name": "findLender",
      "outputs": [
        {
          "name": "index",
          "type": "int256"
        }
      ],
      "payable": false,
      "stateMutability": "view",
      "type": "function",
      "signature": "0x319a8c29"
    },
    {
      "constant": true,
      "inputs": [],
      "name": "getLendersNum",
      "outputs": [
        {
          "name": "n",
          "type": "uint256"
        }
      ],
      "payable": false,
      "stateMutability": "view",
      "type": "function",
      "signature": "0x79201fcf"
    },
    {
      "constant": true,
      "inputs": [
        {
          "name": "addr",
          "type": "address"
        }
      ],
      "name": "getLendersMoney",
      "outputs": [
        {
          "name": "m",
          "type": "int256"
        }
      ],
      "payable": false,
      "stateMutability": "view",
      "type": "function",
      "signature": "0x11843a91"
    },
    {
      "constant": true,
      "inputs": [
        {
          "name": "index",
          "type": "uint256"
        }
      ],
      "name": "getLendersList",
      "outputs": [
        {
          "name": "",
          "type": "address"
        },
        {
          "name": "",
          "type": "uint256"
        },
        {
          "name": "",
          "type": "string"
        }
      ],
      "payable": false,
      "stateMutability": "view",
      "type": "function",
      "signature": "0x37b872ff"
    }
  ],
  "bytecode": "0x608060405234801561001057600080fd5b50610d39806100206000396000f3fe608060405260043610610083576000357c0100000000000000000000000000000000000000000000000000000000900463ffffffff1680630c37c34b1461008857806311843a91146100ee578063319a8c291461015357806337b872ff146101b857806379201fcf146102a6578063ebfe752d146102d1578063f8b2cb4f146103db575b600080fd5b6100d46004803603604081101561009e57600080fd5b81019080803573ffffffffffffffffffffffffffffffffffffffff16906020019092919080359060200190929190505050610440565b604051808215151515815260200191505060405180910390f35b3480156100fa57600080fd5b5061013d6004803603602081101561011157600080fd5b81019080803573ffffffffffffffffffffffffffffffffffffffff16906020019092919050505061068b565b6040518082815260200191505060405180910390f35b34801561015f57600080fd5b506101a26004803603602081101561017657600080fd5b81019080803573ffffffffffffffffffffffffffffffffffffffff1690602001909291905050506106e4565b6040518082815260200191505060405180910390f35b3480156101c457600080fd5b506101f1600480360360208110156101db57600080fd5b81019080803590602001909291905050506107ab565b604051808473ffffffffffffffffffffffffffffffffffffffff1673ffffffffffffffffffffffffffffffffffffffff16815260200183815260200180602001828103825283818151815260200191508051906020019080838360005b8381101561026957808201518184015260208101905061024e565b50505050905090810190601f1680156102965780820380516001836020036101000a031916815260200191505b5094505050505060405180910390f35b3480156102b257600080fd5b506102bb6108db565b6040518082815260200191505060405180910390f35b3480156102dd57600080fd5b506103c1600480360360608110156102f457600080fd5b81019080803573ffffffffffffffffffffffffffffffffffffffff169060200190929190803590602001909291908035906020019064010000000081111561033b57600080fd5b82018360208201111561034d57600080fd5b8035906020019184600183028401116401000000008311171561036f57600080fd5b91908080601f016020809104026020016040519081016040528093929190818152602001838380828437600081840152601f19601f8201169050808301925050505050505091929192905050506108e7565b604051808215151515815260200191505060405180910390f35b3480156103e757600080fd5b5061042a600480360360208110156103fe57600080fd5b81019080803573ffffffffffffffffffffffffffffffffffffffff169060200190929190505050610b13565b6040518082815260200191505060405180910390f35b600080821315156104b9576040517f08c379a000000000000000000000000000000000000000000000000000000000815260040180806020018281038252601e8152602001807f6d6f6e6579206d75737420626520706f73697469766520696e7465676572000081525060200191505060405180910390fd5b600082905060006104c9856106e4565b905060008112151561067e576000819050826000828154811015156104ea57fe5b906000526020600020906004020160010154101561050e5760009350505050610685565b8260008281548110151561051e57fe5b90600052602060002090600402016001016000828254039250508190555060008181548110151561054b57fe5b90600052602060002090600402016003013390806001815401808255809150509060018203906000526020600020016000909192909190916101000a81548173ffffffffffffffffffffffffffffffffffffffff021916908373ffffffffffffffffffffffffffffffffffffffff1602179055505082600160003373ffffffffffffffffffffffffffffffffffffffff1673ffffffffffffffffffffffffffffffffffffffff168152602001908152602001600020600082825401925050819055508573ffffffffffffffffffffffffffffffffffffffff163373ffffffffffffffffffffffffffffffffffffffff167fddf252ad1be2c89b69c2b068fc378daa952ba7f163c4a11628f55a4df523b3ef856040518082815260200191505060405180910390a360019350505050610685565b6000925050505b92915050565b6000610695610b5c565b60006106a0846106e4565b905060008113156106b9578160200151925050506106df565b7fffffffffffffffffffffffffffffffffffffffffffffffffffffffffffffffff925050505b919050565b600080600090505b600080549050811015610781578273ffffffffffffffffffffffffffffffffffffffff1660008281548110151561071f57fe5b906000526020600020906004020160000160009054906101000a900473ffffffffffffffffffffffffffffffffffffffff1673ffffffffffffffffffffffffffffffffffffffff16141561077657809150506107a6565b8060010190506106ec565b507fffffffffffffffffffffffffffffffffffffffffffffffffffffffffffffffff90505b919050565b60008060606000848154811015156107bf57fe5b906000526020600020906004020160000160009054906101000a900473ffffffffffffffffffffffffffffffffffffffff1660008581548110151561080057fe5b90600052602060002090600402016001015460008681548110151561082157fe5b9060005260206000209060040201600201808054600181600116156101000203166002900480601f0160208091040260200160405190810160405280929190818152602001828054600181600116156101000203166002900480156108c75780601f1061089c576101008083540402835291602001916108c7565b820191906000526020600020905b8154815290600101906020018083116108aa57829003601f168201915b505050505090509250925092509193909250565b60008080549050905090565b60006060600084131515610963576040517f08c379a000000000000000000000000000000000000000000000000000000000815260040180806020018281038252601e8152602001807f6d6f6e6579206d75737420626520706f73697469766520696e7465676572000081525060200191505060405180910390fd5b600061096e866106e4565b90507fffffffffffffffffffffffffffffffffffffffffffffffffffffffffffffffff81141515610a07576040517f08c379a00000000000000000000000000000000000000000000000000000000081526004018080602001828103825260198152602001807f746865206c656e64657220616c7265616479206578697374210000000000000081525060200191505060405180910390fd5b610a0f610b5c565b6080604051908101604052808873ffffffffffffffffffffffffffffffffffffffff1681526020018781526020018681526020018481525090506000819080600181540180825580915050906001820390600052602060002090600402016000909192909190915060008201518160000160006101000a81548173ffffffffffffffffffffffffffffffffffffffff021916908373ffffffffffffffffffffffffffffffffffffffff160217905550602082015181600101556040820151816002019080519060200190610ae4929190610b9b565b506060820151816003019080519060200190610b01929190610c1b565b50505050600193505050509392505050565b6000600160008373ffffffffffffffffffffffffffffffffffffffff1673ffffffffffffffffffffffffffffffffffffffff168152602001908152602001600020549050919050565b608060405190810160405280600073ffffffffffffffffffffffffffffffffffffffff1681526020016000815260200160608152602001606081525090565b828054600181600116156101000203166002900490600052602060002090601f016020900481019282601f10610bdc57805160ff1916838001178555610c0a565b82800160010185558215610c0a579182015b82811115610c09578251825591602001919060010190610bee565b5b509050610c179190610ca5565b5090565b828054828255906000526020600020908101928215610c94579160200282015b82811115610c935782518260006101000a81548173ffffffffffffffffffffffffffffffffffffffff021916908373ffffffffffffffffffffffffffffffffffffffff16021790555091602001919060010190610c3b565b5b509050610ca19190610cca565b5090565b610cc791905b80821115610cc3576000816000905550600101610cab565b5090565b90565b610d0a91905b80821115610d0657600081816101000a81549073ffffffffffffffffffffffffffffffffffffffff021916905550600101610cd0565b5090565b9056fea165627a7a723058203045368562197d20089dd35b47df480b8d7ccc7e3bb5449640fbfeff7f75d0950029",
  "source": "pragma solidity ^0.5.0;\r\n\r\ncontract Loan {\r\n    //放贷人\r\n    struct Lender {\r\n        address addr;\r\n        uint balance;\r\n        string name;\r\n        address[] borrowers;\r\n    }\r\n\r\n    Lender[] private lenders;\r\n\r\n    mapping (address => uint) balances;\r\n\r\n    event Transfer(address indexed _from, address indexed _to, uint256 _value);\r\n\r\n    constructor() public {} \r\n\r\n    // 贷款\r\n    function lendMoney(address receiver, int a) public payable returns(bool sufficient) {\r\n        require(a > 0,\"money must be positive integer\");\r\n        uint amount = uint(a);\r\n        int index = findLender(receiver);\r\n        if(index>=0) {\r\n            uint idx = uint(index);\r\n            if(lenders[idx].balance < amount) return false;\r\n            lenders[idx].balance -= amount;\r\n            lenders[idx].borrowers.push(msg.sender);\r\n            balances[msg.sender] += amount;\r\n            emit Transfer(msg.sender, receiver, amount);\r\n            return true;\r\n        }\r\n        return false;\r\n    }\r\n\r\n    // 借贷人余额\r\n    function getBalance(address addr) public view returns(uint) {\r\n        return balances[addr];\r\n    }\r\n\r\n    // 添加放贷人\r\n    function addLender(address a,int b,string memory s) public returns(bool status) {\r\n        address[] memory addre;\r\n        require(b>0,\"money must be positive integer\");\r\n\r\n        int st = findLender(a);\r\n        require(st==-1,\"the lender already exist!\");\r\n\r\n        Lender memory lender = Lender({\r\n            addr: a,\r\n            balance: uint(b),\r\n            name: s,\r\n            borrowers: addre\r\n        });\r\n        lenders.push(lender);\r\n        return true;\r\n    }\r\n\r\n    // 查询放贷人\r\n    function findLender(address a) public view returns(int index) {\r\n        for(uint i = 0; i < lenders.length; ++i){\r\n            if(lenders[i].addr == a){\r\n                return int(i);\r\n            }\r\n        }\r\n\r\n        return -1;\r\n    }\r\n\r\n    // 获得放贷人数量\r\n    function getLendersNum() public view returns(uint n) {\r\n        return lenders.length;\r\n    }\r\n\r\n    // 获得放贷人余额\r\n    function getLendersMoney(address addr) public view returns(int m) {\r\n        Lender memory lender;\r\n        int index = findLender(addr);\r\n        if(index>0){\r\n            return int(lender.balance);\r\n        } else {\r\n            return -1;\r\n        }\r\n    }\r\n\r\n    // 获得放贷人列表\r\n    function getLendersList(uint index) public view returns(address, uint, string memory){\r\n        return (lenders[index].addr,lenders[index].balance,lenders[index].name);\r\n    }\r\n\r\n}",
  "sourcePath": "F:/Truffle-vue/contracts/Loan.sol",
  "compiler": {
    "name": "solc",
    "version": "0.5.0+commit.1d4f565a.Emscripten.clang"
  },
  "schemaVersion": "3.0.0",
  "updatedAt": "2018-12-26T12:52:40.088Z",
  "devdoc": {
    "methods": {}
  },
  "userdoc": {
    "methods": {}
  }
}